:020000040800F2
:1000000000100020B95400080955000809550008DF
:1000100000000000000000000000000000000000E0
:10002000000000000000000000000000095500086A
:10003000000000000000000009550008713C0008A5
:100040000955000809550008095500080955000818
:100050000955000809550008095500080955000808
:1000600009550008095500080955000809550008F8
:1000700011420008095500080955000809550008F3
:1000800009550008000000000000000009550008A4
:10009000000000000955000809550008095500082E
:1000A000000000000955000809550008812F0008CC
:1000B0000955000800000000095500080000000074
:1000C000B0B586B000AF0400080011007B600E25BB
:1000D0007B19221C1A800C243B19021C1A800A234B
:1000E000FB180A1C1A807A193B190021525E002164
:1000F0005B5E9A4204DC1723FB1800221A7021E091
:100100000E23FB181A880C23FB181B88D31A9AB2EB
:1001100014257C190A23FB181B881900100005F010
:1001200009F8030023807B191B887A689A4205D955
:100130001723FB187A1912881A7003E01723FB188B
:100140007A681A701723FB181B781800BD4606B092
:10015000B0BDB0B586B000AF0400080011007B60F0
:100160000E257B19221C1A800C243B19021C1A80B4
:100170000A23FB180A1C1A807A193B1912881B885B
:100180009A4204D81723FB1800221A7021E00E238C
:10019000FA180C23FB1812881B88D31A9AB214255C
:1001A0007C190A23FB181B881900100004F0C2FFF9
:1001B000030023807B191B887A689A4205D917238C
:1001C000FB187A1912881A7003E01723FB187A6853
:1001D0001A701723FB181B781800BD4606B0B0BD77
:1001E00090B583B000AF786039607A683B6853405F
:1001F00009D57B683968180005F00CF90B1E02D090
:1002000001235C4200E000243968786805F01CF89E
:100210000300E3181800BD4603B090BD80B582B05E
:1002200000AF78600A00BB1C1A807B68BA1C128879
:100230001A80C046BD4602B080BD90B587B000AF01
:100240000400080011007B600E23FB18221C1A809A
:100250000C23FB18021C1A800B203B180A1C1A7076
:100260003B181B78002B04D01623FB1800221A80A1
:1002700004E01623FB187A6812881A800E23FB18F4
:100280001A881623FB181B88D3189AB214217B18DE
:100290001A807A180C23FB180020125E00201B5EC7
:1002A0009A4204DA7B687A1812881A8004E07B6824
:1002B0000C22BA1812881A801423FB1800229B5EA5
:1002C0001800BD4607B090BD80B582B000AF786021
:1002D0007B6800221A607B6800225A60C046BD46D7
:1002E00002B080BD80B586B000AFF8607A603B6038
:1002F0000A23FB180A1C1A80FB6800229B5E1A0066
:100300003B681B681B14D31A7B617A6980231B022C
:100310009A4202DB234B7B6105E07B69224A9342D0
:1003200001DA214B7B610A23FB181B887A695A4347
:100330003B681B68D3187B617B691B141AB27B680E
:100340001A803B687A691A60FB68023300229B5E60
:100350001A003B685B681B14D31A7B617A6980239F
:100360001B029A4202DB0F4B7B6105E07B690E4A60
:10037000934201DA0C4B7B610A23FB181B887A69D4
:100380005A433B685B68D3187B617B691A147B68AE
:10039000023312B21A803B687A695A60C046BD4681
:1003A00006B080BDFF7F00000080FFFF80B582B0F7
:1003B00000AF78600A00BB1C1A807B68BA1C1288E8
:1003C0001A80C046BD4602B080BD90B587B000AF70
:1003D0000400080011007B600E23FB18221C1A8009
:1003E0000C23FB18021C1A800B203B180A1C1A70E5
:1003F0003B181B78002B04D01623FB1800221A8010
:1004000004E01623FB18BA6A12881A800E23FA1821
:100410001623FB1812881B88D3189AB27B681A809F
:100420007B681B880C22BA1812889A4204D97B6810
:100430001A88BB6A1A8004E0BB6A0C22BA181288B8
:100440001A80C046BD4607B090BD80B584B000AFED
:10045000B9607A600F217B18021C1A707B681B78C8
:100460007A181278D31A5A1E9341DBB21A00BB686D
:100470001A707B687A1812781A70C046BD4604B0AC
:1004800080BD80B582B000AF78607B680433002106
:100490001800FFF78BFF7B68023300211800FFF77D
:1004A00085FFC046BD4602B080BDF0B589B002AF41
:1004B0000400080011007B600F257B19221C1A70B4
:1004C0000C26BB19021C1A800A23FB180A1C1A806E
:1004D0003A6B152439197B191B781800FFF7B5FF03
:1004E0007B191B78002B22D03B6B9B79002B1ED1F4
:1004F0003B1918783B6B043316257C19BA191188FF
:100500000093230002000120FFF75FFF7B191B8887
:10051000BA1912889A4203D33B6B9B79002B01D006
:10052000012300E00023DAB27B681A702DE00F236C
:10053000FB181B78002B24D13B6B9B79002B20D020
:100540001523FB1818783B6B023316257C190A26F5
:10055000BA1911880093230002000120FFF735FF2C
:100560007B191B88BA1912889A4205D33B6B9B7979
:10057000002B01D0012300E00023DAB27B681A705F
:1005800003E03B6B9A797B681A707B681A783B6B47
:100590009A71C046BD4607B0F0BD80B582B000AFCD
:1005A000786039607B683A685A60C046BD4602B0E0
:1005B00080BD80B582B000AF786039607B68002272
:1005C0001A607B683A685A60C046BD4602B080BD7A
:1005D000B0B584B000AF05000C0010001900BB1DC1
:1005E0002A1C1A803B1D221C1A80BB1C021C1A806C
:1005F0003B000A1C1A80BB1D00229B5E3A1D12881C
:1006000053431B11FB60FB68002B0BDABB6A1A68B3
:10061000FB6880210906CB1A9A4203DA80231B0665
:10062000FB6011E0FB68002B09DDBB6A1A68FB6800
:100630002649CB1A9A4202DD244BFB6004E0BB6AD8
:100640001B68FA68D318FB60BB6A5B68FA68D3184A
:10065000FB60FB681A130A217B181A807A183B008A
:100660000021525E00215B5E9A4204DD7B6A3A0003
:1006700012881A8013E00A23FA1820217B18002020
:10068000125E00201B5E9A4204DA7A6A7B181B888D
:10069000138004E07B6A0A22BA1812881A807B6AE7
:1006A00000229B5E9AB20A23FB181B88D31A9BB2C6
:1006B0001BB21A00BB1C1B885A43BB6A1A60BB6A78
:1006C000FA685A60C046BD4604B0B0BDFFFFFF7F68
:1006D00080B582B000AF78607B6801221A71C04695
:1006E000BD4602B080BD80B582B000AF78607B6847
:1006F00000225A717B6801221A71C046BD4602B0C1
:1007000080BDB0B58AB000AF0400080011007B6066
:100710000E257B19221C1A800C23FB18021C1A8040
:100720000A203B180A1C1A807B1900229B5E3A188B
:10073000128853437B627B6A002B0ADA7B6A802231
:100740001206D31A3A6C9A4203DA80231B067B62A4
:100750000FE07B6A002B08DD7B6A634AD31A3A6C90
:100760009A4202DD604B7B6203E07A6A3B6CD318ED
:100770007B62BB6C1B79002B02D0BB6C7A681A6061
:10078000BB6C5B79002B02D000233B6201E07B6AEB
:100790003B62BB6C1B683A6AD318BB610E23FB1823
:1007A00000229B5E0C22BA1812885343DB123B6274
:1007B0003A6A80231B029A4202DB4C4B3B6205E003
:1007C0003B6A4B4A934201DA494B3B62BB691B14BB
:1007D0005A003B6AD3185B103B623A6A80231B02C3
:1007E0009A4202DB414B3B6205E03B6A404A93423E
:1007F00001DA3F4B3B623B6A1AB23823FB180121F6
:1008000000201B5E934201DB0023191CCAB2172390
:10081000FB181A703B6A1BB23C22BA180121002057
:10082000125E9A4201DC0023191CCAB21623FB187F
:100830001A701723FB181B78002B05D07A6C38230D
:10084000FB181B8813800EE01623FB181B78002B67
:1008500005D07B6C3C22BA1812881A8003E03B6AF0
:100860001AB27B6C1A807B6A002B03DA01235B428D
:100870007B6205E07B6ADA17D31ADB0FDBB27B629F
:100880003B6A1BB2002B05DA1E23FB1801225242E1
:100890001A8008E03B6A1BB2DA17D31ADB0FDAB210
:1008A0001E23FB181A801E23FB1800229B5E7A6A07
:1008B0009A420BD11723FB181B78002B04D1162367
:1008C000FB181B78002B01D0012300E00023DAB2D3
:1008D000BB6C5A71BB6C00221A71BB6CBA691A608E
:1008E000C046BD460AB0B0BDFFFFFF7FFF7F0000DE
:1008F0000080FFFF80B582B000AF78607B68012286
:100900001A71C046BD4602B080BD80B582B000AF4E
:1009100078607B6800225A717B6801221A71C04698
:10092000BD4602B080BDB0B588B000AF05000C0078
:1009300010001900BB1D2A1C1A803B1D221C1A80A6
:10094000BB1C021C1A803B000A1C1A80BB1D002223
:100950009B5EBA1C12885343FB61FB69002B0ADAC9
:10096000FB6980221206D31ABA6B9A4203DA8023FB
:100970001B06FB610FE0FB69002B08DDFB69644A85
:10098000D31ABA6B9A4202DD614BFB6103E0FA694C
:10099000BB6BD318FB613B6C1B79002B05D03B0074
:1009A00000229B5E1A043B6C1A603B6C5B79002B47
:1009B00002D00023BB6101E0FB69BB613B6C1B689B
:1009C000BA69D3183B61BB1D00229B5E3A1D128899
:1009D0005343DB12BB61BA6980231B029A4202DBDC
:1009E0004C4BBB6105E0BB694B4A934201DA4A4B71
:1009F000BB613B691B145A00BB69D3185B10BB6118
:100A0000BA6980231B029A4202DB424BBB6105E0BC
:100A1000BB69414A934201DA3F4BBB61BB691AB2E1
:100A20003023FB18012100201B5E934201DB0023D1
:100A3000191CCAB20F23FB181A70BB691BB23422EF
:100A4000BA1801210020125E9A4201DC0023191C11
:100A5000CAB20E23FB181A700F23FB181B78002B49
:100A600005D0FA6B3023FB181B8813800EE00E2391
:100A7000FB181B78002B05D0FB6B3422BA181288A8
:100A80001A8003E0BB691AB2FB6B1A80FB69002B6A
:100A900003DA01235B42FB6105E0FB69DA17D31A35
:100AA000DB0FDBB2FB61BB691BB2002B05DA16233F
:100AB000FB18012252421A8008E0BB691BB2DA1708
:100AC000D31ADB0FDAB21623FB181A801623FB1891
:100AD00000229B5EFA699A420BD10F23FB181B7808
:100AE000002B04D10E23FB181B78002B01D001230F
:100AF00000E00023DAB23B6C5A713B6C00221A71A1
:100B00003B6C3A691A60C046BD4608B0B0BDC046ED
:100B1000FFFFFF7FFF7F00000080FFFF80B582B0F6
:100B200000AF78607B6801229A70C046BD4602B073
:100B300080BD80B582B000AF78607B680022DA703B
:100B40007B6801229A70C046BD4602B080BDB0B538
:100B500086B000AF05000C0010001900BB1D2A1C58
:100B60001A803B1D221C1A80BB1C021C1A803B00F1
:100B70000A1C1A80BB1D00229B5EBA1C12885343BC
:100B8000FB60FB68002B0ADAFB6880221206D31A8E
:100B90003A6B9A4203DA80231B06FB600FE0FB6886
:100BA000002B08DDFB686E4AD31A3A6B9A4202DDCD
:100BB0006B4BFB6003E0FA683B6BD318FB60BB6BCD
:100BC0009B78002B03D0BB6B3A0012881A80BB6B5A
:100BD000DB78002B04D01623FB1800221A800BE0D0
:100BE000FB68002B01DA5F4B00E00023FA689B18DA
:100BF0001A141623FB181A80BB6B00229B5E9AB254
:100C00001623FB181B88D3189AB20A23FB181A80E4
:100C1000BB1D00229B5E3A1D12885343DB123B61D1
:100C20003A6980231B029A4202DB4F4B3B6105E08D
:100C30003B694E4A934201DA4C4B3B610A23FB1855
:100C400000229B5E5A003B69D3185B103B613A69F6
:100C500080231B029A4202DB434B3B6105E03B6968
:100C6000424A934201DA414B3B613B691AB2282365
:100C7000FB18012100201B5E934201DB0023191C9D
:100C8000CAB20923FB181A703B691BB22C22BA188E
:100C900001210020125E9A4201DC0023191CCAB215
:100CA0000823FB181A700923FB181B78002B05D0AA
:100CB0007A6B2823FB181B8813800EE00823FB188F
:100CC0001B78002B05D07B6B2C22BA1812881A8057
:100CD00003E03B691AB27B6B1A80FB68002B03DAD6
:100CE00001235B42FB6005E0FB68DA17D31ADB0FD8
:100CF000DBB2FB603B691BB2002B05DA1623FB1845
:100D0000012252421A8008E03B691BB2DA17D31A5B
:100D1000DB0FDAB21623FB181A801623FB18002209
:100D20009B5EFA689A420BD10923FB181B78002BB3
:100D300004D10823FB181B78002B01D0012300E00D
:100D40000023DAB2BB6BDA70BB6B00229A70BB6B0C
:100D50000A22BA1812881A80C046BD4606B0B0BD35
:100D6000FFFFFF7FFFFF0000FF7F00000080FFFF0D
:100D7000F0B5C64600B59CB006AF78607B681B68CE
:100D8000FB627B68DB68BB627B685B687B627B685D
:100D90009B683B627B6A1B799B00DAB27B6A5B795A
:100DA000DB18DBB2D318D9B27B6A9A791F203B18C3
:100DB0008A181A707B6A1B795A1E9341DBB25AB2A9
:100DC0007B6A5B79591E8B41DBB25BB253405AB2EE
:100DD0007B6A9B79591E8B41DBB25BB253405AB29E
:100DE000BB6A9A215B5C591E8B41DBB25BB25340FC
:100DF0005AB2BB6A9B215B5C591E8B41DBB25BB272
:100E000053405AB2BB6A9C215B5C591E8B41DBB2DA
:100E10005BB253405AB21E217B181A707B181B78A4
:100E2000002B00D10DE13123FB18BA6A8E21525CF0
:100E30001A703B181A78CD49F123DB008A18D318B1
:100E40001B785BB2DAB2BB6A8F215B56DBB2D31A76
:100E5000DAB257217B181A700A00BB181B785BB2F4
:100E6000012B04D0BB181B785BB2053304D1BB6ADD
:100E70008E220121995403E0BB6A8E22FF219954EE
:100E80001F23FB181A78B949F123DB008A18D318FD
:100E900000215956BB6A8F229954BB6A8022995E01
:100EA000BB6A56229952BB6A56229B5E9AB2BB6AB3
:100EB00082215B5E9BB2D31A9AB236217B181A80CC
:100EC0000A00BB1800215B5E002B07DABB181B88E9
:100ED0005B429AB25423FB181A8005E05423FB1896
:100EE0003622BA1812881A80FB6A04229B5E5422AA
:100EF000BA180021525E9A4204DBBB6AA922012182
:100F000099540CE0FB6A06229B5E5422BA18002119
:100F1000525E9A4203DCBB6AA92200219954BB6A43
:100F2000A922995CBB6AA2229954BB6A8E229B5665
:100F30003122BA18127852B2D31A5A1E9341DAB239
:100F40001D217B181A707B181B78002B09D0BB6AF7
:100F5000A7229B5C002B04D05423FB1800221A808C
:100F600044E01D23FB181B78002B06D05423FB18EC
:100F7000BA6A8A21525A1A8038E0BB6AA2229B5C64
:100F8000002B0FD0FB6A9B891A01BB6A56215B5E5E
:100F90001900100004F058F903001A005423FB183C
:100FA0001A8023E0FB6A9B899B009BB21801BB6AF5
:100FB00084229B5E9AB2BB6A86215B5E9BB2D31889
:100FC0009AB2BB6A88215B5E9BB2D3189AB2BB6AA5
:100FD00056215B5E9BB2D3189BB21BB2190004F082
:100FE00033F903001A005423FB181A80BB6A8E22BF
:100FF0009B569BB25422BA18128853439BB219B223
:10100000BB6A7A229952BB6A5622995EBB6A8222D7
:101010009952BB6A8622995EBB6A84229952BB6A46
:101020008822995EBB6A86229952BB6A5622995ED3
:10103000BB6A88229952BB6A1D22BA18A72112786E
:101040005A54FB6A0A21595EBB6A40331800542582
:101050007C191E23FB181A7803000120FFF7EDF816
:1010600003002380FB6A0A229B5E7A190021525EEC
:101070009A4204DD3623FB1800221A8005E036234D
:10108000FB18BA6A7A21525A1A803622BB180021FC
:101090005B5E002B07DABB181B885B429AB23423D5
:1010A000FB181A8005E03423FB183622BA18128880
:1010B0001A80FB6AFB229B5C002B09D1BB6AA82229
:1010C0009B5C002B06D0BB6AA2229B5C002B01D14B
:1010D000012200E000221E23FB181A701D23FB18BA
:1010E000BA6AA321525C1A701C23FB18BA6AA421A5
:1010F000525C1A707B6A02229A5E3223FB1812013C
:101100001A807B6A08229B5E1B01BB63BB6B184A7B
:10111000934204DD5223FB18164A1A800FE0BB6B82
:10112000154A934204DA5223FB18144A1A8006E047
:101130007B6A08229A5E5223FB1812011A807B6A8E
:101140000A229B5E1B01BB63BB6B094A934204DD11
:101150005023FB18074A1A8019E0BB6B064A9342DA
:101160000EDA5023FB18054A1A8010E07057000869
:101170003F6A0000406A0000C195FFFFC095FFFF75
:101180007B6A0A229A5E5023FB1812011A80FB6ABE
:10119000FB229B5C002B00D098E01E23FB181B78E1
:1011A000002B54D04A217B185422BA1812881A8076
:1011B000BB6A56229B5E7A180020125E9A4204DBBC
:1011C0007B18BA6A5621525A1A80BB6A8E229B56E5
:1011D000012B0CD11F23FB1819785723FB18D1487A
:1011E000F122D20041188A1812781A700FE01F23DA
:1011F000FB181A78CB49F123DB008A18D3181B7827
:101200005BB2DBB20133DAB25723FB181A704A24FF
:101210003B1900229B5E9A03BB6A56215B5E190054
:10122000100004F011F803009BB2BA6A8E215256E6
:1012300092B253439BB21BB21A005723FB181B7880
:101240005BB29B03D3189A103B191A802AE0BB6A41
:101250008E229B56012B0CD11F23FB181978572384
:10126000FB18B048F122D20041188A1812781A707F
:101270000FE01F23FB181A78AA49F123DB008A1814
:10128000D3181B785BB2DBB20133DAB25723FB18F9
:101290001A705723FB181B785BB21AB24A23FB184B
:1012A00012031A804A22BB1800215B5E002B02DC6D
:1012B000BB1800221A804A217B1800229A5E130074
:1012C0001B019B1A1A117B181A8022E07B6A0E22DE
:1012D0009B5E1900FB6AF8229B5C4B43E13BFF3BA2
:1012E000FB64FB6C9CB2B4235A01FB6C1100180028
:1012F000FEF776FF03009BB2B422520053439BB229
:101300001B019BB2E31A9BB21AB24A23FB1892004C
:101310001A805723FB18BA6A9021525C1A70312147
:101320007B18FF221A70FB6AF9229B5C022B02D108
:101330007B1800221A70BB6A31203A18902112786B
:101340005A5457217A183B18127852B21B785BB264
:101350009A422DD07B181B785BB2002B28D1BB6A38
:1013600098229B56002B0BD1BB6A52220021995226
:10137000BB6A782200219952BB6A542200219952FB
:10138000BB6A9822FF219954BB6A7C2200219952A2
:10139000BB6A7E2200219952BB6A522200219952D7
:1013A000BB6A542200219952BB6A782200219952CB
:1013B0003123FB181B785BB2002B00D09FE1FB6A46
:1013C000FA229B5C002B35D15223FB1800229B5E36
:1013D000554A5343BB635023FB1800229B5E524A7D
:1013E0005343FB64BB6B002B01DA504B00E000233E
:1013F000BA6B9B18DA13FB6C002B01DA4C4B00E044
:101400000023F96C5B189B131BB2D318BB63BA6B38
:1014100080231B029A4202DB444BBB6305E0BB6B9B
:10142000444A934201DA434BBB634823FB18BA6B2F
:101430001A808BE0FB6AFA229B5C012B45D1522378
:10144000FB1800229A5E5023FB1800215B5ED31A22
:10145000BB63BA6B80231B029A4202DB334BBB6334
:1014600005E0BB6B334A934201DA324BBB63BB6B83
:101470002D4A5343BB63BB6B002B01DA2B4B00E0BF
:101480000023BA6B9B18DA134823FB181A805223E7
:10149000FB1800229B5E5A425023FB1800215B5E22
:1014A000D31ABB63BA6B80231B029A4202DB1F4B29
:1014B000BB6305E0BB6B1F4A934201DA1D4BBB6364
:1014C0005223FB18BA6B1A8040E05223FB1800220B
:1014D0009B5E154A5343BB635023FB1800229B5E5F
:1014E000114A5343FB64BB6B002B01DA0F4B00E046
:1014F0000023BA6B9B18DB135A42FB6C002B01DAFA
:101500000B4B00E00023F96C5B189B131BB2D31A42
:10151000BB63BA6B80231B029A420DDB034BBB6398
:1015200010E0C04670570008E7490000FF7F000048
:10153000FF3F00000080FFFFBB6BD24A934201DAFD
:10154000D04BBB634823FB18BA6B1A801B257C1950
:101550004A23FB180020185EB42380220021FEF7E6
:10156000AFFD030023707B191A78C74B5200D15E80
:10157000BB6A7C2299527B191B78C34AB4335B0047
:10158000D31802330021595EBB6A7E229952572339
:10159000FB18BA6A9821525C1A7031217B18FF221D
:1015A0001A707B6A1B78002B02D07B1800221A70FD
:1015B000BB6A31203A18982112785A5457217A1868
:1015C0003B18127852B21B785BB29A4210D07B184B
:1015D0001B785BB2002B0BD1BB6A522200219952BF
:1015E000BB6A782200219952BB6A54220021995289
:1015F0003123FB181B785BB2002B00D07FE0572310
:10160000FB181B785BB2002B04D0BB6A3833180080
:10161000FEF75AFE4823FB1800229B5EBA6A7E2121
:10162000525E53439B131BB218005223FB18002237
:101630009B5EBA6A7C21525E53439B131BB2C31A52
:10164000BB63BA6B80231B029A4202DB8F4BBB63E6
:1016500005E0BB6B8B4A934201DA8A4BBB63BB6BE1
:101660001AB21023FB181A805223FB1800229B5E2B
:10167000BA6A7E21525E53439B131BB21800482363
:10168000FB1800229B5EBA6A7C21525E53439B1377
:101690001BB2C318BB63BA6B80231B029A4202DBE6
:1016A0007A4BBB6305E0BB6B764A934201DA754B1C
:1016B000BB63BB6B1AB210203B185A80FB6AEC224A
:1016C000995ABB6A52331A00BB6A38333818FEF78E
:1016D00009FEBB6A52229B5E002B0ADABB6A5222C9
:1016E0009B5E9BB25B429BB219B2BB6A7822995255
:1016F00005E0BB6A5222995EBB6A78229952BB6AA6
:10170000A3229B5C002B00D1F4E2FB6AFD229B5CD0
:10171000002B00D187E0BB6A9D229B5C1A0004234A
:10172000134004D01523FB1801221A7031E0BB6A64
:101730008C229B5E002B09DABB6A8C229B5E9BB2DB
:101740005B429AB25023FB181A8005E05023FB1825
:10175000BA6A8C21525A1A807B6A1B78002B13D0EC
:10176000FB6ADC229B5E3422BA180021525E9A4248
:101770000ADAFB6ADE229B5E5022BA180021525E12
:101780009A4201DD012300E00023DAB21523FB18A1
:101790001A701F23FB181B78072B01D1022300E0CE
:1017A00000231F22BA18127851424A41D2B29B1824
:1017B000D9B215257B191B789B00DAB21B26BB1901
:1017C0008A181A70BB191B785A1E9341DBB21C0091
:1017D000FB6A198AFB6ADA89BB6AA1331800BB6A03
:1017E0002E33009303002000FEF75FFEBB6AA122A8
:1017F000985CBB6A2C331A007B191900FEF725FE92
:101800007B191B78002B04D03B6ABA1912789A71A5
:1018100004E0BB6A9D229A5C3B6A9A713B6A9979A3
:10182000BB6A9D229954BB6AA1229B5C002B07D105
:101830007B6A1B78002B03D07B6A5B78002B01D17D
:10184000012300E00023DAB21523FB181A707B6A2B
:101850005B78022B04D0FB6AFC229B5C002B01D03E
:10186000012200E000221723FB181A707B6A5B78C4
:10187000032B0DD1FB6AFC229B5C002B08D10122BB
:1018800007E0C0460080FFFF70570008FF7F0000A0
:1018900000221623FB181A70BB6A9E229B5C002B49
:1018A0000CD1BB6A9E2201219954BB6A9F2202215E
:1018B0009954BB6A992200219954E6E0BB6A9F22A1
:1018C0009B5C012B00D09BE01523FB181B78002BA1
:1018D0000CD0BB6AA02200219954BB6A9F2202212E
:1018E0009954BB6A992200219954CEE0BB6AA02288
:1018F0009B5C012B02D0022B25D049E0BB6A9922C8
:10190000022199541723FB181B78002B00D0B7E055
:10191000BB6AA022002199541623FB181B78002BC8
:1019200008D0BB6AA02202219954BB6A99220321E4
:101930009954A5E0BB6AA02203219954BB6A99225D
:10194000012199549CE0BB6A9922032199541623E2
:10195000FB181B78002B00D094E0BB6AA02200216A
:1019600099541723FB181B78002B08D0BB6AA022C0
:1019700001219954BB6A99220221995482E0BB6AE1
:10198000A02203219954BB6A99220121995479E03C
:10199000BB6A9922012199541623FB181B78002B4E
:1019A00005D11723FB181B78002B00D16CE0BB6A14
:1019B000A022002199541623FB181B78002B08D075
:1019C000BB6AA02202219954BB6A9922032199542F
:1019D0005AE01723FB181B78002B08D0BB6AA02203
:1019E00001219954BB6A9922022199544CE0BB6AA7
:1019F000A02203219954BB6A99220121995443E002
:101A0000BB6A9922002199541523FB181B78002BDF
:101A10003BD17B6A5B78012B09D01723FB181B781D
:101A2000002B04D11623FB181B78002B2DD0BB6A8A
:101A30009F22012199541623FB181B78002B08D0F4
:101A4000BB6AA02202219954BB6A992203219954AE
:101A50001BE01723FB181B78002B08D0BB6AA022C1
:101A600001219954BB6A9922022199540DE0BB6A65
:101A7000A02203219954BB6A99220121995404E0C0
:101A8000C04602E0C04600E0C046FB6AF9229B5C0B
:101A9000022B42D108217B1800221A80FB6A1222F5
:101AA0009A5E7B185A80FB6ADA229A5E7B189A80CB
:101AB000FB6ACE229A5E7B18DA8032217B180022E4
:101AC0009A5EFA239B019A4204DD7B18FA22920166
:101AD0001A8009E032217B1800229B5EBF4A9342A4
:101AE00002DA7B18BD4A1A807B6A5B781A000823E9
:101AF000FB185200D35E5B017D21180003F0A4FBAC
:101B000003009BB21A003223FB1800215B5E534393
:101B10001A135223FB181A801FE03223FB180022ED
:101B20009A5EFA239B019A4205DD5223FB18FA22A2
:101B300092011A8011E03223FB1800229B5EA74A13
:101B4000934204DA5223FB18A44A1A8005E0522378
:101B5000FB183222BA1812881A805723FB18BA6A67
:101B60009721525C1A70BB6A99229B5C5A1E934162
:101B7000DAB231217B181A70BB6A08007A189721F3
:101B800012785A543B181B785BB2002B03D0012B00
:101B900000D18FE095E03123FA185723FB18127813
:101BA00052B21B785BB29A4206D0BB6AA6220121D0
:101BB0009954BB6A00229A64BB6A8C229B5E1B0309
:101BC000BB63BA6B80231B05134004D0BB6BF822A8
:101BD0001206134302E0BB6B5B015B09FB64BB6A4B
:101BE000A6229A5C15203B181A70BB6AA622002117
:101BF00099543B181B78002B02D0FB6C3B6402E02D
:101C0000BB6A9B6C3B643B6C5B42BB63BA6B8023DF
:101C10001B05134004D0BB6BF8221206134302E0ED
:101C2000BB6B5B015B09FB63FB6A1B68FA6B9A4247
:101C300003DDFB6A1B68FB6317E0FB6A1B685B4202
:101C4000BB63BA6B80231B05134004D0BB6BF82227
:101C50001206134302E0BB6B5B015B09BB63FA6BCB
:101C6000BB6B9A4201DABB6BFB63FA6B3B6CD3181C
:101C7000BB63BA6B80231B05134004D0BB6BF822F7
:101C80001206134302E0BB6B5B015B093B64152347
:101C9000FB181B78002B03D0BB6AFA6C9A6402E035
:101CA000BB6A3A6C9A643B6C1B1319B2BB6A742210
:101CB000995206E0BB6A5222BA18742112885A520D
:101CC000C046BB6A74229B5E002B0BDABB6A74228F
:101CD0009B5E9BB25B429BB219B2BB6A7622995261
:101CE00000F06AFDBB6A7422995EBB6A7622995243
:101CF00000F062FDBB6AA4229B5C002B00D1A7E22E
:101D0000FB6AFE229B5C002B00D1CAE032217B18CB
:101D100000229B5E002B05DA7B181B885B429AB27F
:101D20007B181A80FB6AE0229B5E32217A18002021
:101D3000125E9A4205DD7B18FA6AE021525A1A8037
:101D40000DE0FB6AE2229B5E32217A180020125ECF
:101D50009A4204DA7B18FA6AE221525A1A80322334
:101D6000FB181A88FB6AE2215B5E9BB2D31A9BB216
:101D70001BB2D803FB6AE0229B5E9AB2FB6AE221A7
:101D80005B5E9BB2D31A9BB21BB2190003F05CFAE4
:101D900003001A004623FB181A80FB6AD6229B5EBA
:101DA0003422BA180021525E9A4206DD5223FB18F3
:101DB000FA6AD621525A1A8018E0FB6AD8229B5E32
:101DC0003422BA180021525E9A4209DA5223FB18D3
:101DD000FA6AD821525A1A8008E0C04680C1FFFF33
:101DE0005223FB183422BA1812881A805223FB1887
:101DF0001A88FB6AD8215B5E9BB2D31A9BB21BB2D6
:101E0000D803FB6AD6229B5E9AB2FB6AD8215B5E3E
:101E10009BB2D31A9BB21BB2190003F015FA030050
:101E20001A0018217B181A8046203A187B1812884D
:101E30001B889A420AD23A187B1812881B889A4249
:101E400010D83B187A1812881A800BE018217A18DB
:101E500046203B1812881B889A4203D23B187A18F6
:101E600012881A80FB6AF9229B5C022B06D1502350
:101E7000FB18FA6AD021525A1A8005E05023FB1849
:101E8000FA6ACC21525A1A805023FB1800229B5E1A
:101E90004622BA1812885343DB1319B2BB6A722266
:101EA00099525723FB18BA6A9521525C1A70312156
:101EB0007B18FF221A70FB6AF9229B5C022B02D16D
:101EC0007B1800221A70BB6A31203A1895211278CB
:101ED0005A5457217A183B18127852B21B785BB2C9
:101EE0009A4208D07B181B785BB2002B03D1BB6AE7
:101EF0009622FF2199543123FB181B785BB2002BEB
:101F000001D000F059FCFB6A1221595EBB6A5C22C9
:101F10009952BB6A5C229B5E9BB25B429BB219B238
:101F2000BB6A5E229952BB6A5A229B5E002B09DA79
:101F3000BB6A5A229B5E9BB25B429AB25023FB184B
:101F40001A8005E05023FB18BA6A5A21525A1A80A7
:101F5000FB6A7022995EFB6A72229B5E9AB2FB6AF0
:101F600070201B5E9BB2D31A9AB25023FB1800203C
:101F7000185E2D23FEF7A4F80300FA6A08335B000D
:101F8000D31804330021595EBB6A60229952BB6AA0
:101F900060229B5E9BB25B429BB219B2BB6A62221B
:101FA0009952FB6ACE22995EBB6A64229952BB6A3F
:101FB00072229B5E1B04BB63BA6B80231B069A4292
:101FC00004D1BB6A64229B5E013308D0BB6A6422E1
:101FD0009B5E1900B86B03F037F9030000E0C94BB2
:101FE000BB63BB6B002B02DA0023BB6306E0BA6B5A
:101FF00080235B029A4201DBC34BBB63BB6B98B28D
:10200000C24A31230021FEF7A4F80300C04AE221AE
:1020100089008C4663445B00D31802331B88190087
:10202000BB6A64229B5E4B431B1419B2BB6A6622D7
:102030009952BB6A66229B5E9BB25B429BB219B20D
:10204000BB6A682299525723FB18BA6A9621525CE0
:102050001A703123FB18FF221A70BB6A99229B5C0D
:10206000032B0FD013DC012B02D0022B05D00EE086
:102070003123FB1800221A7009E03123FB180122DA
:102080001A7004E03123FB1802221A70C046BB6AA2
:1020900031203A18962112785A543B181B785BB2BB
:1020A000022B00D197E000DDC7E0002B02D0012B0E
:1020B0005AD0C2E03123FA185723FB18127852B2D3
:1020C0001B785BB29A420FD0BB6A2433FA22920487
:1020D00011001800FEF76DFABB6A1C33FA22920455
:1020E00011001800FEF765FABB6A66229B5E9AB281
:1020F000BB6A78215B5E9BB2D31A9BB218B2FB6AB3
:10210000F222995AFB6AE4229C5ABB6A76229D5EAF
:10211000BB6A7033BA6A243202920193002300939F
:102120002B002200FEF754FAFB6ADA229B5E9AB279
:102130003423FB181B88D31A9BB218B2FB6AF62211
:10214000995AFB6AE4229C5ABB6A76229D5EBB6A5E
:102150006E33BA6A1C3202920193002300932B0063
:102160002200FEF735FA68E0BB6A52229A5EBB6A2B
:1021700066215B5E9A4206DD5023FB18BA6A66212F
:10218000525A1A8014E0BB6A52229A5EBB6A6821D6
:102190005B5E9A4206DA5023FB18BA6A6821525AEB
:1021A0001A8005E05023FB18BA6A5221525A1A804D
:1021B0005023FB181A88BB6A52215B5E9BB2D31A6C
:1021C0009BB21BB21900FB6AF2229B5A4B431A00C6
:1021D000BB6A5A6431E03123FA185723FB1812788E
:1021E00052B21B785BB29A4207D0BB6A1433E12229
:1021F000920411001800FEF7DCF9FB6ADA229B5EFC
:102200009AB23423FB181B88D31A9BB218B2FB6A0C
:10221000F622995AFB6AE4229C5ABB6A60229D5EB0
:10222000BB6A6C33BA6A14320292019300230093A2
:102230002B002200FEF7CCF9C046BB6A64229B5EED
:102240009BB25B429BB219B2BB6A6A229952B3E25B
:10225000BB6AA5229B5C002B00D1ADE25723FB1883
:10226000BA6A9221525C1A7031217B18FF221A70CF
:10227000FB6AF9229B5C022B02D17B1800221A70A8
:10228000BB6A31203A18922112785A5457217A1891
:102290003B18127852B21B785BB29A420CD07B1872
:1022A0001B785BB2002B07D1BB6A9322FF219954A4
:1022B000BB6A9422FF21995431203B181B785BB2F2
:1022C000002B00D078E25723FB18BA6A9321525CA6
:1022D0001A70BB6A99229B5C032B08D00CDC012B83
:1022E00018D0022B08D13B1801221A7013E03123B9
:1022F000FB1802221A700EE03123FB1803221A7019
:1023000009E0C046FFFFFF7FFFFF00001F05000040
:1023100070570008C046BB6A31203A1893211278E2
:102320005A543B181B785BB2032B00D1BBE100DD94
:10233000C0E1022B00D120E100DDBBE1002B03D086
:10234000012B00D169E0B5E1BB6A76229A5EBB6AD7
:1023500070215B5E9A4206DA3223FB18BA6A762154
:10236000525A1A8005E03223FB18BA6A7021525A79
:102370001A80BB6A6E229B5E32217A180020125EA0
:102380009A4204DB7B18BA6A6E21525A1A80BB6AE1
:1023900074229B5E002B05DA5023FB180122524267
:1023A0001A8009E0BB6A74229B5EDA17D31ADB0F2E
:1023B000DAB25023FB181A803223FB181B885022F4
:1023C000BA18128853439AB252217B181A80BB6AFA
:1023D00060229B5E7A180021525E9A4206DDBB6A3B
:1023E0006022995EBB6A5822995263E1BB6A6222FD
:1023F0009B5E5222BA180021525E9A4206DABB6AEC
:102400006222995EBB6A5822995253E1BB6A5222FA
:10241000BA18582112885A524CE13123FA1857231E
:10242000FB18127852B21B785BB29A4204D0BB6A96
:1024300004331800FEF769FAFB6A08229A5E5221FB
:102440007B1812011A80FB6AFC229B5C002B40D097
:102450007B1800229B5E002B3BD07B1800229B5EEA
:10246000002B1ADDBB6A60229A5E10203B181A808E
:10247000BB6A74229A5EBB6A62215B5E9A4205DD8A
:10248000BB6A74229A5E3B185A802DE0BB6A6222B6
:102490009A5E1023FB185A8026E0BB6A60229A5E7F
:1024A000BB6A74215B5E9A4206DABB6A60229A5E5E
:1024B0001023FB181A8005E0BB6A74229A5E102371
:1024C000FB181A80BB6A62229A5E1023FB185A809E
:1024D0000AE0BB6A60229A5E10217B181A80BB6AF0
:1024E00062229A5E7B185A80FB6AFC229B5C002B5E
:1024F00005D15223FB18BA6A7421525A1A8052230A
:10250000FB1800229A5E3623FB1800215B5ED31A6B
:10251000BB63BA6B80231B029A4202DBB34BBB63E3
:1025200005E0BB6BB24A934201DAB14BBB63BB6BB4
:102530001DB2FB6AEA229E5AFB6AF4229B5A9C4611
:10254000BB6A8C229B5E984610217B1800229A5E03
:102550007B180221595EBB6A5B6CB86A5830BC6A52
:10256000043404940390029301910092434662461E
:1025700031002800FEF7D7F99CE03123FA185723E1
:10258000FB18127852B21B785BB29A4203D0BB6A36
:102590001800FEF7CEFABB6A6C229B5E9BB25B42D0
:1025A0009AB25223FB181A80BB6A74229A5EBB6AE5
:1025B00066215B5E9A4206DD5023FB18BA6A6621EB
:1025C000525A1A8014E0BB6A74229A5EBB6A682170
:1025D0005B5E9A4206DA5023FB18BA6A6821525AA7
:1025E0001A8005E05023FB18BA6A7421525A1A80E7
:1025F0005023FB1800229B5EBA6A5221525E9B1A3E
:10260000BB63BA6B80231B029A4202DB774BBB632E
:1026100005E0BB6B764A934201DA754BBB63BB6A3C
:1026200060229A5EBB6A6C215B5E9A4206DA502396
:10263000FB18BA6A6021525A1A8005E05023FB1831
:10264000BA6A6C21525A1A80BB6A62229B5E52217E
:102650007A180020125E9A4204DC7B18BA6A622162
:10266000525A1A80BB6B18B2FB6AE822995AFB6A6D
:10267000F0229C5ABB6A8C229D5EBB6A5833BA6AB0
:1026800004920393002302935223FB1800229B5EC3
:1026900001935023FB1800229B5E00932B00220025
:1026A000FEF755FA06E0BB6A7422995EBB6A5822AF
:1026B0009952C0465723FB18BA6A9421525C1A708B
:1026C00031217B18FF221A701E23FB181B78002B68
:1026D00002D07B1800221A70BB6A31203A1894216C
:1026E00012785A543B181B785BB2002B64D15723E5
:1026F000FB181B785BB2002B04D0BB6A0C331800AC
:10270000FDF7F1FFBB6A72229B5E9BB25B429AB2FD
:1027100052217B181A80BB6A64229B5E7A180020C3
:10272000125E9A4205DD7B18BA6A6421525A1A80F9
:102730000DE0BB6A6A229B5E52217A180020125E6D
:102740009A4204DA7B18BA6A6A21525A1A805223D2
:10275000FB1800229B5EBA6A5421525E9B1ABB632F
:10276000BA6B80231B029A4202DB204BBB6305E05D
:10277000BB6B1F4A934201DA1D4BBB63BB6B1CB2A0
:10278000FB6AE6229D5AFB6AEE229E5ABB6A5C22D5
:102790009B5EBA6A5E21525EB96A5A31B86A0C30E1
:1027A00004900391002102910192009300233200D2
:1027B00029002000FDF7A5FF5723FB18BA6A9121D5
:1027C000525C1A7031203B18FF221A70FB6AF92202
:1027D0009B5C022B0ED15223FB18BA6A5821525A25
:1027E0001A803B1800221A700AE0C046FF7F0000E2
:1027F0000080FFFF5223FB18BA6A7421525A1A80D4
:10280000BB6A31203A18912112785A5457217A180C
:102810003B18127852B21B785BB29A4210D07B18E8
:102820001B785BB2002B0BD1BB6A4C220021995262
:10283000BB6A4E2200219952BB6A50220021995254
:102840003123FB181B785BB2002B00D031E1BB6A4F
:102850005A229B5E1900BB6A7E229B5E4B439B13F0
:102860001BB21900BB6A58229B5E1800BB6A7C220F
:102870009B5E43439B131BB2CB1ABB63BA6B802393
:102880001B029A4202DBB94BBB6305E0BB6BB84A43
:10289000934201DAB64BBB63BB6A5A229B5E1900B6
:1028A000BB6A7C229B5E4B439B131BB21900BB6A25
:1028B00058229B5E1800BB6A7E229B5E43439B139B
:1028C0001BB2CB18FB64FA6C80231B029A4202DB1A
:1028D000A64BFB6405E0FB6CA54A934201DAA44BCE
:1028E000FB64FB6CA34A5343FB64FB6C002B01DAD3
:1028F000A14B00E00023FA6C9B189B13BA6B12B239
:1029000092B2D20BD2B21100BA6B92B28A1892B2C2
:1029100012B2521012B29B1AFB64FA6C80231B0293
:102920009A4202DB914BFB6405E0FB6C904A9342B8
:1029300001DA8F4BFB64BB6B1BB25B42FA6C12B2C9
:102940009B1A3B643A6C80231B029A4202DB874B42
:102950003B6405E03B6C864A934201DA844B3B645E
:1029600032217B18BA6B1A80BB6B1AB2FB6C1BB29C
:102970009A4202DB7B18FA6C1A803B6C1BB2322144
:102980007A180020125E9A4202DB7B183A6C1A8099
:1029900050217B18BA6B1A80BB6B1AB2FB6C1BB24E
:1029A0009A4202DC7B18FA6C1A803B6C1BB25021F5
:1029B0007A180020125E9A4202DC7B183A6C1A8068
:1029C0003223FB1800229A5E5023FB1800215B5E25
:1029D000D318FB63FA6B80231B029A4202DB634B22
:1029E000FB6305E0FB6B624A934201DA604BFB63D9
:1029F000FB6B5A1048217B181A80BB6B1BB21A0064
:102A00007B1800215B5ED31ABB63BA6B80231B0269
:102A10009A4202DB554BBB6305E0BB6B544A9342C1
:102A200001DA534BBB63BB6B544A53439B1319B23C
:102A3000BB6A4C229952FB6C1BB21A004823FB184C
:102A400000215B5ED31ABB63BA6B80231B029A42E0
:102A500002DB464BBB6305E0BB6B454A934201DAA0
:102A6000434BBB63BB6B454A53439B1319B2BB6AD1
:102A70004E2299523B6C1BB21A004823FB180021CE
:102A80005B5ED31ABB63BA6B80231B029A4202DBE4
:102A9000364BBB6305E0BB6B354A934201DA344BDE
:102AA000BB63BB6B354A53439B1319B2BB6A5022BD
:102AB00099521E23FB181B78002B17D0FB6AF922B2
:102AC0009B5C022B12D13223FB18BA6A4C21525A5A
:102AD0001A805023FB18BA6A4E21525A1A80482392
:102AE000FB18BA6A5021525A1A80FBE01E23FB18C9
:102AF0001B78002B00D18FE0FB6AF9229B5C012B35
:102B000000D089E0FB6AFE229B5C002B38D0BB6AB8
:102B100072229B5E9BB2BA6A8E21525692B2534386
:102B20009BB29B009AB24A23FB181B88D3189AB217
:102B300032243B191A803B1900229B5EB422D20139
:102B400011001800FDF74CFB03009BB2B4225200A9
:102B500053439BB21BB29B0119B23B191A888BB22B
:102B6000D31A9AB23B191A8010E0C046FF7F0000CA
:102B70000080FFFF6D370000FF3F0000E7490000C5
:102B80003223FB184A22BA1812881A801F257C1992
:102B90003226BB190020185EB42380220021FDF7E5
:102BA0008FFA0300237052243B1900229B5E2800F9
:102BB0003A18127881496932FF3252008A18043279
:102BC0000021525E53439A13BB191A803B1900220D
:102BD0009A5E3B181B7879498725AD00AC46634463
:102BE0005B00CB18063300215B5E53439A135023DE
:102BF000FB181A803B1900229A5E3B181B786F491C
:102C0000B5208000844663445B005B5E53439A13A7
:102C10004823FB181A8065E01F23FB181A786749C0
:102C2000F123DB008A18D3181B785BB2052B04DD77
:102C30005723FB1805221A701CE01F23FB181A7873
:102C40005E49F123DB008A18D3181B785BB2002B96
:102C500004DA5723FB1800221A700BE01F23FB181D
:102C600019785723FB185548F122D20041188A18C9
:102C700012781A705723FB1800229A5613005B0033
:102C80009B18FB644D4A4E49FB6CD3185B181B78AC
:102C90005BB29BB252203A18128853439AB2322345
:102CA000FB181A80FB6C0133444A4549D3185B1862
:102CB0001B785BB29BB23A18128853439AB25023E6
:102CC000FB181A80FB6C02333C4A3D49D3185B1851
:102CD0001B785BB29BB23A18128853439AB24823CE
:102CE000FB181A803223FB1800229B5E1B111AB2BC
:102CF0003B6A1A805023FB1800229B5E1B111AB2FC
:102D00003B6A5A807B6A1979BB6A9A2299547B6A1A
:102D10005979BB6A9B2299547B6A9979BB6A9C2238
:102D20009954BB6A5422BA18802112885A52BB6A3D
:102D30003422BA188A2112885A52BB6AA522995C99
:102D4000BB6AA3229954BB6A1D22BA18A421127827
:102D50005A54BB6A1C22BA18A52112785A54BB6A6D
:102D60005222BA188C2112885A524823FB1800228A
:102D70009B5E1B111AB23B6A9A803623FB18002215
:102D80009B5E1B111AB23B6A1A814A23FB18002270
:102D90009B5E9B111AB23B6A5A81BB6A52229A5EB1
:102DA0003B6A9A81BB6A54229A5E3B6ADA81C046CA
:102DB000BD4616B080BCB846F0BDC046705700088E
:102DC0007607000080B584B000AF78607B681B6830
:102DD000FB607B68DB68BB60BB689022FF21995475
:102DE000BB689822FF219954BB689722FF21995410
:102DF000BB689522FF219954BB689622FF21995404
:102E0000BB689222FF219954BB689322FF219954F9
:102E1000BB689422FF219954BB689122FF219954E9
:102E2000FB680A21595EBB6880229952BB68A322C5
:102E300001219954FB680A21595EBB6856229952B8
:102E4000BB6840331A00FB680A215B5E1900100062
:102E5000FDF7E4F9BB682E331800FDF712FBBB68E1
:102E6000A62201219954BB682433FA22920411004E
:102E70001800FDF792FBBB681C33FA229204110084
:102E80001800FDF78AFBBB681433E122920411009D
:102E90001800FDF782FBBB685C22E1218901995291
:102EA000BB685E2216499952BB686022E121890104
:102EB0009952BB68622212499952BB686422114937
:102EC0009952BB686A2210499952BB6866220D4923
:102ED0009952BB6868220C499952BB6804331800A8
:102EE000FDF708FDBB681800FDF718FEBB680C3342
:102EF0001800FDF7EDFBC046BD4604B080BDC046DE
:102F0000C0C7FFFFE02E000020D1FFFF80B500AF5B
:102F1000174B24221A70174B174A1A60174BDA689E
:102F2000164B01218A43DA60C046144B9B68082285
:102F30001340FAD00F4B1B681B78DAB20F4B1A60A4
:102F40000B4B1B785BB2DBB2013BDBB25AB2084BD6
:102F50001A70084B1B685A1C064B1A60074B1A69FB
:102F6000064B01210A431A61C046BD4680BDC046DA
:102F70007801002074010020440100200038014045
:102F800080B582B000AF534BDB680222134000D102
:102F900072E0504B5A694F4B02210A435A614D4B24
:102FA0005A68FB1D1A704C4B1B78002B0BD1FB1D74
:102FB0001B78CD2B00D089E0474B1B780133DAB268
:102FC000454B1A7082E0444B1B78012B14D1FB1D3A
:102FD0001B78AB2B0CD1404B1B780133DAB23E4B44
:102FE0001A703E4A3E4B1A603E4B3F4A1A806DE0D3
:102FF000394B00221A7069E0374B1B78072B65D8D4
:10300000374B1B68FA1D12781A70354B1B685A1C17
:10301000334B1A60304B1B78072B26D12E4B0022E6
:103020001A70304B1B881AB22E4B02215B5E534044
:103030001AB22C4B04215B5E53401AB23B1D1A801E
:10304000284BDB883A1D12889A423FD1274A254BEC
:103050001000190008231A0002F0AEFA244B0022D7
:103060001A70244B00221A8030E01B4B1B7801336E
:10307000DAB2194B1A7029E0164BDB6801221340B3
:1030800024D0144B5A69134B01210A435A611A4B3D
:103090001B785BB2DBB2013BDBB25AB2164B1A7043
:1030A000154B1B785BB2002B05DC0A4B1A69094BE8
:1030B00001218A431A61114B1B681B78DAB2054B58
:1030C0001A600E4B1B685A1C0C4B1A60C046BD465A
:1030D00002B080BD00380140C40100207E01002004
:1030E000C80100207C010020CDABFFFF3C03002085
:1030F0003A0300202C0100207801002074010020F8
:1031000080B500AF642000F0CBFD174B08221A6198
:10311000642000F0C5FD9023DB05802252011A6176
:10312000642000F0BDFD104B04221A61642000F001
:10313000B7FD9023DB05802212021A61642000F0A3
:10314000AFFD094B08225A619023DB058022520112
:103150005A61054B04225A619023DB05802212023A
:103160005A61C046BD4680BD000C004890B591B084
:1031700004AF0023FB622623FB1800221A8001F013
:10318000FDFA184B5A69174B01218A435A6100F026
:1031900051FD00F00DFE00F0F1FE00F0F9FF01F02E
:1031A00087FB00F091FD104B9A680F4B04210A43F6
:1031B0009A600E4B04221A6101F0CCFB01F0EEFB89
:1031C00001F00AFE0A4B1B899BB21B043B61084BB2
:1031D0001B899AB22423FB181A80064B08221A6115
:1031E0000DE0C046001002400024014000040048E9
:1031F000DC010020000C00480A2000F051FDEA4BE1
:103200009B6820221340F7D19023DB0580225201D6
:103210001A61E64B1A69E54B02210A431A61C8207C
:1032200000F03EFD00F08AFB642000F039FD0E2323
:10323000FB1800221A800C23FB1800221A800A2394
:10324000FB1800221A800823FB1800221A80BB1DDD
:1032500000221A803B1D00221A80BB1C00221A800B
:10326000D34B1A68FB6AD31A502B00D84CE2D14BCF
:103270001B681421180001F0E3FF0B1E10D1082376
:10328000FC180A23FA180C23F9180E23F818BB1C93
:1032900002933B1D0193BB1D0093230000F07EFBB6
:1032A00001F07CFDC44B1B78002B1BD1C34B9B79D9
:1032B000002B17D1C24B02229B5EDA179B1853409A
:1032C0009BB2312B0ED8062001F0ECFD042001F05A
:1032D000E9FD642000F0E4FCBA4B00221A60B64B12
:1032E00001221A70B64B0220185EB74B1B881BB226
:1032F000B64A190001F0D6FEB44B00229B5E1B11AA
:103300001BB21800AF4BB2491A0001F077FEAD4B6B
:103310001B681A1426217B181A807B1800229A5EDB
:10332000AC4B1A60AB4B1A68FA239B009A4203DD40
:10333000A84BFA2292001A60A64B1B68A64A934239
:1033400002DAA44BA44A1A6001F00DFEA34B00223E
:103350009B5E5B423B629F4B1A683B6AD31AFB61E0
:103360009F4B1A68FB69D2189D4B1A609C4B1A68D8
:10337000FA235B019A4203DD994BFA2252011A604B
:10338000974B1B68974A934202DA954B954A1A600D
:10339000904B1B68002B08D13B6A043305DB3B6A6A
:1033A000042B02DC8E4B00221A608F4B1B68FA69DB
:1033B0005A438E4B19688A4B1B684B43D3181B1218
:1033C000BB62BA6AFA239B009A4202DDFA239B0091
:1033D000BB62BB6A804A934201DA7F4BBB62844B7B
:1033E000BA6A1A60834B1B899BB218001023FB1822
:1033F00081491A0001F002FE3B691A1424217B184E
:103400001A807B1800229B5ECD22120153431B13AE
:10341000BB61BB69794AD31A794A534330211800FA
:1034200001F012FF03009BB2FA339BB21AB2754B44
:103430001A80754B00229B5E1A00744B5343EE2298
:103440009100180001F000FF03001AB2704B1A80BF
:103450001723FB1800221A70564B1B6801221340D9
:1034600000D0F5E0514B9B680422134000D0EFE000
:10347000684B694A1A80504B1B781A00654B5A807A
:103480004E4B9B791A00634B9A804D4B02229A5EF9
:10349000604BDA80614B00229A5E5E4B1A81474B8B
:1034A00008229A5E5B4B5A815D4B00229A5E594B13
:1034B0009A810E23FB1800229A5E564BDA810C2368
:1034C000FB1800229A5E534B1A820A23FB18002233
:1034D0009A5E504B5A820823FB1800229A5E4D4B8D
:1034E0009A82BB1D00229A5E4A4BDA823B1D002263
:1034F0009A5E484B1A83BB1C00229A5E454B5A8346
:10350000434B00229A5E434B9A833E4B00229A5EC5
:10351000404BDA83434B00229B5E9AB23D4B1A84A8
:103520003C4B1A883B4B5B8853409AB2394B9B8883
:1035300053409BB21AB2374B06215B5E53401AB21E
:10354000344B08215B5E53401AB2324B0A215B5E5A
:1035500053401AB22F4B0C215B5E53401AB22D4BD5
:103560000E215B5E53401AB22A4B10215B5E534022
:103570001AB2284B12215B5E53401AB2254B14211C
:103580005B5E53401AB2234B16215B5E53401AB266
:10359000204B18215B5E53401AB21E4B1A215B5E12
:1035A00053401AB240E0C0460004004800380140D1
:1035B0002C020020340100203202002020030020D1
:1035C0001C0100206C01002008010020680100207F
:1035D000991900003C01002018FCFFFF3003002077
:1035E00040010020C0E0FFFF000100200401002096
:1035F000D0010020DC0100208F020000AB0500009C
:10360000102700003A0100200C0100201A0E0000D3
:103610003801002044010020CDABFFFF3A0200201A
:103620003C0200203E020020384B1C215B5E5340D0
:103630001AB2364B1E215B5E53401AB2334B1B8CC1
:103640001BB253401BB29AB2304B5A84FFF75EFC58
:103650002F4B9B682022134007D0C0462C4B9B6801
:1036600020221340FAD101F0A3FC2A4B9B79002BB6
:1036700008D0294B00221A7001221821012001F0E4
:10368000CDFB1FE0254B1B78002B05D00122182114
:10369000032001F0C3FB15E02623FB1800229B5EEC
:1036A00032330ADA1E4B00229B5E002B05DA012220
:1036B0000521002001F0B2FB04E0002200210020DF
:1036C00001F0ACFB174B1B685A1C164B1A602623E3
:1036D000FB1800229B5EDA179B1853409BB2322BDB
:1036E00002D9104B00221A600E4B1B680E4A9342FF
:1036F00001D901F05DFC0D4B1B68FB620C4B1B6894
:103700005A1C0B4B1A60ABE5C046A9E544010020EA
:10371000000400482003002032020020340300206F
:103720003003002070010020803801002C020020AE
:103730003401002080B582B000AF00237B6002E03E
:103740007B6801337B607B68952BF9DDC046C04602
:10375000BD4602B080BD80B500AF0A4B01221A61A0
:10376000084B02221A61FFF7E5FF064B01225A615E
:10377000FFF7E0FF034B02225A61FFF7DBFFC04671
:10378000BD4680BD000C004880B500AF084B01224B
:103790005A61FFF7CFFF064B02221A61FFF7CAFFFB
:1037A000034B01221A61FFF7C5FFC046BD4680BD2D
:1037B000000C004890B585B000AF0200FB1D1A70E8
:1037C0000023FB601FE0FB1D1B785BB2002B03DABC
:1037D0001E4B01221A6102E01C4B01225A61FFF7C5
:1037E000A9FF1A4B02221A61FFF7A4FF174B02220E
:1037F0005A61FFF79FFFFA1DFB1D1B78DB18137042
:10380000FB680133FB60FB68072BDCDD0F4B0122FB
:103810001A61FFF78FFF0D4B02221A61FFF78AFF33
:103820000A4B9B68012213405A425341DAB20B24DF
:103830003B191A70054B02225A61FFF77BFF3B19B7
:103840001B781800BD4605B090BDC046000C00486E
:1038500090B585B000AF0200FB1D1A700F23FB1856
:1038600000221A70254B01221A610023BB601DE063
:103870000F243A193B191B78DB1813701F4B0222D7
:103880005A61FFF757FF1D4B02221A61FFF752FFE3
:103890001A4B9B680122134005D03B193A19127844
:1038A00001210A431A70BB680133BB60BB68072B58
:1038B000DEDD124B02225A61FB1D1B78002B03D068
:1038C0000E4B01225A6102E00C4B01221A61FFF7F4
:1038D00031FF0A4B02221A61FFF72CFF074B02222D
:1038E0005A61064B01221A61FFF724FF0F23FB18D0
:1038F0001B781800BD4605B090BDC046000C0048BE
:1039000080B582B000AF0200FB1D1A70BB1D0A1CFF
:103910001A70FFF720FFD220FFF74CFFFB1D1B782A
:103920001800FFF747FFBB1D1B781800FFF742FF89
:10393000FFF72AFFC046BD4602B080BD80B582B009
:1039400000AF80216B20FFF7DBFF00237B6002E0EC
:103950007B6801337B607B680F4A9342F8DD01216D
:103960006B20FFF7CDFF00216C20FFF7C9FF072177
:103970001920FFF7C5FF03211A20FFF7C1FF082117
:103980001B20FFF7BDFF00211C20FFF7B9FFC04639
:10399000BD4602B080BDC0464FC3000090B58BB09D
:1039A00000AFF860B9607A603B60FFF7D4FED220C8
:1039B000FFF700FF3B20FFF7FDFEFFF7CCFED32013
:1039C000FFF7F8FE00237B620DE00120FFF740FFC8
:1039D000030019001423FA187B6AD3180A1C1A7002
:1039E0007B6A01337B627B6A0C2BEEDD0020FFF7E4
:1039F0002FFF03001A0014243B195A73FFF7C4FE6B
:103A00003B191B781BB21B021AB23B195B781BB225
:103A100013431AB2FB681A803B199B781BB21B0236
:103A20001AB23B19DB781BB213431AB2BB681A8077
:103A30003B191B791BB21B021AB23B195B791BB2F3
:103A400013431AB27B681A803B199B791BB21B0285
:103A500019B23B19DB791AB222203B180A431A80AB
:103A60003B1800229B5E64225343932251001800AE
:103A700001F0EAFB03009BB2174A944663449BB2F1
:103A80001AB23B681A8021007B181B7A1BB21B02FA
:103A90001AB27B185B7A1BB213431AB2BB6B1A8043
:103AA0007B189B7A1BB21B021AB27B18DB7A1BB203
:103AB00013431AB2FB6B1A807B181B7B1BB21B02D1
:103AC0001AB27B185B7B1BB213431AB23B6C1A8091
:103AD000C046BD460BB090BD3408000080B582B032
:103AE00000AF0200FB1D1A70FB1D1B787F2B09D84D
:103AF000FB1D1B781A001F231A40044B0121914023
:103B00000A001A60C046BD4602B080BD00E100E078
:103B100090B583B000AF02003960FB1D1A70FB1D29
:103B20001B787F2B28D82F4AFB1D1B785BB29B0884
:103B3000C0339B009B58FA1D1278110003220A40E3
:103B4000D200FF2191400A00D2431A4011003B6885
:103B50009B01FF221A40FB1D1B7818000323034022
:103B6000DB009A401F48FB1D1B785BB29B080A4391
:103B7000C0339B001A5031E01B4AFB1D1B78190013
:103B80000F230B40083B9B0806339B00D3180433DC
:103B90001B68FA1D1278110003220A40D200FF218F
:103BA00091400A00D2431A4011003B689B01FF225A
:103BB0001A40FB1D1B78180003230340DB009A40CA
:103BC0000948FB1D1B781C000F232340083B9B0862
:103BD0000A4306339B00C31804331A60C046BD462F
:103BE00003B090BD00E100E000ED00E080B582B0E0
:103BF00000AF78607B685A1E80235B049A4201D331
:103C0000012310E00A4B7A68013A5A6001235B42B3
:103C100003211800FFF77CFF054B00229A60044B3C
:103C200007221A6000231800BD4602B080BDC046BE
:103C300010E000E080B500AF0B4B00221A600B4B88
:103C40001B68FA229100180001F074FA03001800B2
:103C5000FFF7CCFF01235B4200211800FFF758FF5C
:103C6000C046BD4680BDC046D801002018010020D6
:103C700080B500AF084B1B68002B04D0064B1B68B7
:103C80005A1E054B1A60054B1B685A1C034B1A60E1
:103C9000C046BD4680BDC046D4010020D8010020EA
:103CA00080B582B000AF7860064B7A681A60C04673
:103CB000044B1B68002BFBD1C046C046BD4602B07A
:103CC00080BDC046D401002080B582B000AF324B29
:103CD0009A69314B8021C9010A439A612E4B5A6976
:103CE0002D4B8021C9020A435A612C4B1A6A2B4B77
:103CF0002B490A401A62294B1A68284B28490A4066
:103D00001A60264B1A68254B902109050A431A6050
:103D1000224B1A6A214B23490A401A621F4B1A6A26
:103D20001E4BC02189020A431A621C4B1A681B4BA6
:103D30001C490A401A60194B1A68184B8021C902A5
:103D40000A431A60184B00229A61174B3022DA613D
:103D5000154B9A69144B19210A439A61134B1B683E
:103D6000E1225102180001F0E5F903001A00BB1D21
:103D70001A80BB1D1B881B099AB20B4B1A62BB1D14
:103D80001A88094B0F210A405A621B20FFF7A6FE32
:103D9000C046BD4602B080BD00100240000400488D
:103DA000FFFFFFF0FFFFF0FF003801401801002087
:103DB00080B500AF684B5A69674BF02149030A434D
:103DC0005A619023DB055A689023DB051201120922
:103DD0005A609023DB055A689023DB058021490552
:103DE0000A435A609023DB05802212025A61902315
:103DF000DB055A689023DB0558490A405A60902336
:103E0000DB055A689023DB05802149020A435A608A
:103E10009023DB05802252015A61514B1A68504BA6
:103E200050490A401A604E4B1A684D4B8021490098
:103E30000A431A604A4B04225A61494B1A68484B9C
:103E400049490A401A60464B1A68454B802149018E
:103E50000A431A60424B08225A61444B5A68434B4A
:103E60003E490A405A60414B5A68404B8021490202
:103E70000A435A603D4B802252015A613B4B1A68FB
:103E80003A4B38490A401A60384B1A68374B802140
:103E900049000A431A60354B04225A61334B1A68B1
:103EA000324B33490A401A60304B1A682F4B80213D
:103EB000C9030A431A602D4B5A682C4BF0218A43E0
:103EC0005A602A4B5A68294B10210A435A60274BE3
:103ED000802292005A61274B5A68264B1201120920
:103EE0005A60244B5A68234B8021C9050A435A6003
:103EF000204B5A681F4B20490A405A601D4B5A6894
:103F00001C4B8021C9040A435A601A4B5A68194B4A
:103F100017490A405A60174B5A68164B8021C9034B
:103F20000A435A600C4B5A690B4B802149030A43E0
:103F30005A610B4B1A680A4BFF218A431A60084BDF
:103F40001A68074B77210A431A60054B03221A614E
:103F5000C046BD4680BDC04600100240FFFFF0FFD6
:103F6000000C0048FFF0FFFFFF0FFFFF00040048B8
:103F7000FFFF0FFF00080048FFFFFFF080B500AF14
:103F8000794B9A69784B802109010A439A61764BF3
:103F90005A69754BC021C9020A435A619023DB0557
:103FA0005A6A9023DB050F218A435A629023DB056E
:103FB0005A6A9023DB0502210A435A629023DB05EB
:103FC0005A689023DB050F218A435A609023DB0552
:103FD0005A689023DB0509210A435A609023DB05C8
:103FE0005A6A9023DB05F0218A435A629023DB054D
:103FF0005A6A9023DB0520210A435A629023DB058D
:104000005A689023DB05F0218A435A609023DB0530
:104010005A689023DB0590210A435A609023DB0500
:104020005A6A9023DB0551490A405A629023DB0506
:104030005A6A9023DB05802189000A435A62902343
:10404000DB055A689023DB0548490A405A609023F3
:10405000DB055A689023DB05902109010A435A6069
:10406000434B5A6A424B43490A405A62404B5A6A90
:104070003F4B802189030A435A623D4B5A683C4BAF
:104080003C490A405A603A4B5A68394B902109041E
:104090000A435A60364B5A6A354B37490A405A62CE
:1040A000334B5A6A324B802189040A435A62304B9F
:1040B0005A682F4B30490A405A602D4B5A682C4B96
:1040C000902109050A435A60294B5A6A284B12016C
:1040D00012095A62264B5A6A254B802189050A43E8
:1040E0005A62234B5A68224B120112095A60204B24
:1040F0005A681F4B902109060A435A601F4B002241
:104100009A601E4B20221A601C4B00229A621B4BA5
:104110001B4ADA62194B01221A63184B20225A609B
:10412000164B184A9A61154B6022DA61134B164AF6
:104130005A64124B154A1A62104B5A6C0F4B80216D
:1041400009020A435A640D4B5A680C4BA821890195
:104150000A435A60094B1A68084B01210A431A6046
:10416000C046BD4680BDC04600100240FFF0FFFFC4
:1041700000040048FFFF0FFFFFFFFFF0002C01408D
:10418000B80B0000606000001E0C00005505000028
:1041900080B500AF184B9A69174B802189000A43FC
:1041A0009A61154B5A69144BC021C9020A435A61DE
:1041B0009023DB0500221A60104B1A680F4BFF2179
:1041C0008A431A600E4B0F4A5A600D4B5A680C4BCB
:1041D00001210A435A600A4B0B4A9A60084B0B4A6A
:1041E000DA6000210C20FFF793FC0C20FFF776FC2F
:1041F000C046BD4680BDC0460010024000040048D5
:10420000002401400D04000001020200B34200003E
:1042100090B585B000AFAF4B5A69AE4B01210A4350
:104220005A61AD4B802252011A61AA4B9B699AB226
:10423000A84BDB699BB2D31A9BB21B051B0D9AB22C
:10424000A64B5A80A34B9B6A9AB2A24BDB6A9BB2E5
:10425000D31A9BB21B051B0D9AB2A04B9A809D4BA3
:104260005B6B9BB21B051B0D9AB29C4B1A80994B42
:10427000DB6B9BB21B051B0D9AB2984BDA80954BFA
:104280001B6D9BB21B051B0D9AB2944B1A81944B6C
:104290001B78002B06D0924B1B78013BDAB2904B77
:1042A0001A7046E28F4B00229B5E002B4ADD8B4B3F
:1042B0005B889BB21A008C4B1B68D2188A4B1A6021
:1042C000864B9B889BB21A00884B1B68D218874B81
:1042D0001A60824B1B889BB21A00854B1B68D21850
:1042E000834B1A607F4B00229B5E9BB2013B9BB2CB
:1042F0001AB27C4B1A807B4B00229B5E002B00D0B5
:1043000014E2794B1B68002B02DA7A4A9446634424
:104310009B121AB2784B1A80744B1B68002B02DA7E
:10432000744A944663449B121AB2744B1A80704BC1
:104330001B68002B02DA6F4A944663449B121AB240
:104340006F4B1A806F4B1B68FA229100180000F027
:1043500077FF0B1E0ED1614BDB889BB218006A4BB6
:104360006A491A0000F04AFE674B1B681B141AB218
:10437000674B1A80674B00221A80674B00221A8015
:10438000564B1B889AB25E4B00215B5E9BB2D31AE0
:104390009BB21AB2614B1A80604B00229B5EDA1707
:1043A0009B1853409BB25E4A934203D85D4B1B78E7
:1043B000002B06D15C4B5A6C5B4B5C490A405A643B
:1043C00006E0594B5A6C584B802109020A435A6443
:1043D0004C4B1B685A1C4B4B1A60554B1B78002BDF
:1043E0004CD0484B1B685349180000F0A3FE030053
:1043F0001A00514B1B7801331900100000F020FF08
:104400000B1E3BD14D4B1B78002B13D14B4B012284
:104410001A704B4B1B780133DAB2494B1A70484B78
:104420001B781A00474B1B7802339A4202DD444B3B
:1044300001221A70334B1A683D4B1B78190010008B
:1044400000F0FEFE0B1E25D13D4B1A783D4B1B782C
:104450009A4203D93B4B1B78002B1BD11E4BDA68C9
:1044600080239B00134004D01B4B802292005A6192
:1044700010E0194B802292001A610BE02F4B1B7841
:10448000002B08D0144B802292005A612B4B002243
:104490001A7000E0C0462C4BF9229B5C022B04D121
:1044A0002A4B962252001A8002E0284B00221A80E2
:1044B000274B1B78002B00D03AE1254B01221A70C4
:1044C000184B1B78002B47D0224B9B79002B43D1F4
:1044D000012342E00024014000040048DC010020E8
:1044E0001401002016010020400200204402002098
:1044F00048020020FF0300004C0200204E02002072
:10450000500200202C020020100100202C3300005B
:104510000C0100203A0200203C0200203E02002054
:104520005203000032020020002C0140FF7FFFFFF9
:1045300028020020881300002902002030020020F9
:10454000310200202A02002000000020CC010020BF
:1045500052020020200300200023DAB2764B1A70AA
:10456000764B9A6880231B0213405A425341DAB2B9
:104570000F217B181A70714B9A688023DB0113405E
:104580005A425341DAB20E203B181A706B4B9A68AC
:1045900080239B0113405A425341DAB20D243B1948
:1045A0001A70654B1A78664B1A70664B1A78644B12
:1045B0005A70654B1B681AB2614B5A80604B7A186F
:1045C00012781A715E4B3A1812785A715C4B3A198C
:1045D00012789A715D4B00229A5E594B1A815C4B9E
:1045E00000229A5E564B5A815A4B00229A5E544BD7
:1045F0009A81594B1B681800FCF7BAFB574B0022F5
:104600009B5EBB60554B02229B5E7B60534B04223A
:104610009B5E3B60BB68524A9A18524B00215B5E1E
:104620001900514B5B1A9A4208DB4E4B00229B5EED
:104630009BB24D4AD31A9BB21A0015E0BB684B4A95
:1046400094466344474A0021525E934207DBBB68AD
:104650009BB2464A944663449BB21A0004E0414B25
:1046600000229B5E9BB21A00414B5A637B683C4A16
:104670009A183C4B00215B5E19003B4B5B1A9A4237
:1046800008DB384B00229B5E9BB2374AD31A9BB2A1
:104690001A0015E07B68354A94466344314A00218C
:1046A000525E934207DB7B689BB2304A9446634478
:1046B0009BB21A0004E02B4B00229B5E9BB21A00B7
:1046C0002B4B9A633B68264A9A18264B00215B5E67
:1046D0001900254B5B1A9A4208DB224B00229B5E95
:1046E0009BB2214AD31A9BB21A0015E03B681F4ABD
:1046F000944663441B4A0021525E934207DB3B68A9
:104700009BB21A4A944663449BB21A0004E0154BCC
:1047100000229B5E9BB21A00154BDA63154B0022F8
:104720001A70154B802252015A6102E0C04600E027
:10473000C046BD4605B090BD3302002000080048C9
:10474000100300202B010020D00100203A0200209D
:104750003C0200203E020020005F000820030020F1
:10476000DB050000CC010020B80B0000DC050000D8
:10477000002C0140520200200004004880B500AF28
:10478000164B1A68154B01210A431A60134B5A68DD
:10479000124B13490A405A60104B1A680F4B1149CB
:1047A0000A401A600D4B1A680C4B0F490A401A60F8
:1047B0000A4B5A68094B0D490A405A60074B1A6860
:1047C000064B0B490A401A60044B9F2212049A6060
:1047D00000F010F8C046BD4680BDC0460010024043
:1047E0000CC0FFF8FFFFF6FEFFFFFBFFFFFF3CFFE3
:1047F000FFFF8F0080B582B000AF284B1A68274BAF
:1048000001210A431A60C046244B1B680222134050
:10481000FAD0234B234A1A60234B1A68224B1021EB
:104820000A431A60204B1A681F4B07218A431A60FB
:104830001B4B1B68013B1D49180000F07BFC03006B
:104840007B60194B1968184B7A680A431A60134A3F
:10485000124B52685A60114A104B52685A600F4B03
:104860001A680E4B802149030A431A600B4B5A68A1
:104870000A4B03218A435A60084B5A68074B0221AE
:104880000A435A60C046054B5B680C221340082B54
:10489000F9D1C046C046BD4602B080BD00100240FE
:1048A0001801002000A24A040020024000366E01D8
:1048B00080B500AF214BFB22002199541F4BFA22F7
:1048C000012199541D4BF922022199541B4BFD22C1
:1048D00001219954194BCE2219499952174BDA22CA
:1048E000FA2189019952154BFE2201219954134B4B
:1048F000D022FA2109019952104BCC22C82149003B
:1049000099520E4BE0229621C90199520B4BE2229B
:104910000B4999520B4B094A1A600A4B0A4ADA6052
:10492000084B0A4A5A60074B094A9A60054B18001F
:10493000FEF748FAC046BD4680BDC04600000020D4
:10494000E02E00005402002064020020100300202A
:104950002003002080B500AF0B4BFE229B5C002B98
:1049600007D00A4B9622D2001A80094B094A1A80B6
:1049700006E0064BFA2292001A80054B064A1A807E
:10498000C046BD4680BDC046000000203603002062
:104990003803002050FBFFFF18FCFFFF80B500AF7D
:1049A0000D4B5B79032B10D10B4B0620185E0A4B85
:1049B0000821595E084B0A229B5E1A0000F00EF88F
:1049C0000300DAB2044B1A7103E0034B5A79024B2D
:1049D0001A71C046BD4680BD1C010020B0B584B030
:1049E00000AF040008001100BB1D221C1A803B1DF3
:1049F000021C1A80BB1C0A1C1A800023FB600A25BB
:104A00007B19C8221A80BB1D00229A5E7B190021E7
:104A10005B5E1900100000F017FC03001C00BB1CBB
:104A200000229A5E7B1900215B5E1900100000F0E5
:104A30000BFC03009C4228D03B1D00229A5E7B1990
:104A400000215B5E1900100000F0FEFB03001C005B
:104A5000BB1C00229A5E7B1900215B5E19001000CE
:104A600000F0F2FB03009C420FD0BA1DBB1C0021DA
:104A7000525E00215B5E9A4207DC3A1DBB1C00219E
:104A8000525E00215B5E9A4202DD0023FB601EE065
:104A9000BB1D00229A5E0A257B1900215B5E19006E
:104AA000100000F0D1FB03001C003B1D00229A5EA9
:104AB0007B1900215B5E1900100000F0C5FB0300AC
:104AC0009C4202D10123FB6001E00223FB60FB68F2
:104AD0001800BD4604B0B0BD90B583B000AF78609B
:104AE00008001100BB1C021C1A803B000A1C1A8023
:104AF0007B681B79012B02D0022B42D013E17B682B
:104B000000229B5E1A007B6806215B5ED31A3A0086
:104B10000021525E5A437B680A215B5E19007B6864
:104B200006201B5ECB1A1900100000F08DFB03005D
:104B30001A003B0000215B5E9A421CDC7B6800226D
:104B40009B5E1A007B6806215B5ED31A3A00002147
:104B5000525E5A437B680A215B5E19007B6806201F
:104B60001B5ECB1A1900100000F06EFB031E00DA6A
:104B700000231BB202E03B0000229B5E7A68538058
:104B8000D5E07B6800229B5E1A007B6808215B5E93
:104B900019007B680C201B5ECB1A9A4211DD7B68E2
:104BA00000229B5E1A007B6808215B5E19007B680F
:104BB0000C201B5ECB189A4203DA7B6800225A80D5
:104BC000B5E07B6800229A5E7B6808215B5E9A42B2
:104BD00055DD7B6800229B5E1A007B6808215B5EC6
:104BE00019007B680C201B5ECB18D31A3A000021F9
:104BF000525E5A437B680A215B5E19007B6808207D
:104C00001B5E18007B680C241B5FC318CB1A1900AD
:104C1000100000F019FB03001A003B0000215B5E4E
:104C20009A4226DC7B6800229B5E1A007B68082182
:104C30005B5E19007B680C201B5ECB18D31A3A0010
:104C40000021525E5A437B680A215B5E19007B6833
:104C500008201B5E18007B680C241B5FC318CB1A4E
:104C60001900100000F0F0FA031E00DA00231BB256
:104C700002E03B0000229B5E7A68538057E07B682D
:104C800000229B5E1A007B6808215B5E19007B682E
:104C90000C201B5ECB1AD31ABA1C0021525E5A4359
:104CA0007B6806215B5E19007B6808201B5E18008C
:104CB0007B680C241B5FC31ACB1A1900100000F08C
:104CC000C3FA031E2BDC7B6800229B5E1A007B6804
:104CD00008215B5E19007B680C201B5ECB1AD31A7F
:104CE000BA1C0021525E5A437B6806215B5E1900A4
:104CF0007B6808201B5E18007B680C241B5FC31AAE
:104D0000CB1A1900100000F09FFA03001A00BB1C18
:104D100000215B5E9A4200DA1A0012B200E0002223
:104D20007B685A8003E07B6800225A80C046C046F8
:104D3000BD4603B090BD80B500AF124B1B885A1C16
:104D400091B2104A11809F2B05D90F4B01221A7086
:104D50000C4BA0221A800C4B1A780C4B1A700B4B80
:104D60001B78002B06D00A4B00221A70094B002238
:104D70005A8003E0084B1A78054B1A70C046BD46AE
:104D800080BDC0462C0100203A03002034030020DF
:104D90002B0100201C0100202A01002080B500AF5B
:104DA000094B04229A5E094B1A80094B0021595E77
:104DB000084B00229A5E054B1800FFF78DFEFFF7A7
:104DC000BAFFC046BD4680BD3C0300201C01002048
:104DD000380300203603002080B582B000AF0D4BB1
:104DE00000221A7008237B6009E07B68DAB20A4B64
:104DF0001A706420FEF754FF7B68013B7B607B6880
:104E0000022BF2DC044B00221A70C046BD4602B0F1
:104E100080BDC0462A0200202802002090B583B041
:104E200000AF040008001100FB1D221C1A70BB1DFE
:104E3000021C1A707B1D0A1C1A70084BFA1D12788E
:104E40001A70074BBA1D12781A70064B7A1D127829
:104E50001A70C046BD4603B090BDC0462A0200206D
:104E6000280200202902002080B582B000AF020095
:104E7000FB1D1A70094B00221A70094BFA1D12789B
:104E80001A70FA235B001800FEF70AFF044B002299
:104E90001A70C046BD4602B080BDC0462A0200203E
:104EA0002802002080B582B000AF0200FB1D1A70FE
:104EB000084B00221A70084BFA1D12781A706420F1
:104EC000FEF7EEFE044B00221A70C046BD4602B04B
:104ED00080BDC0462A0200202802002090B585B07F
:104EE00000AF0200FB1D1A70BB1D0A1C1A70BB1D0F
:104EF0001B787F2B19D80F23FA18FB1D1B78DB18A2
:104F000013700CE00F243B191B780333DBB218003D
:104F1000FFF7C8FF3B193A191278023A1A700F23AB
:104F2000FB181B78012BEDD819E00E23FB18022289
:104F30001A700CE00E243B191B780333DBB2180007
:104F4000FFF7B0FF3B193A19127802321A700E239C
:104F5000FB181A78FB1D1B785B009A42EADDC046FD
:104F6000BD4605B090BD80B500AF0E4B00221A8043
:104F70000C4B00229B5E9AB20B4B08215B5E9BB2EE
:104F8000D31A9BB21AB2074B1A80064B00229B5EC3
:104F9000DA179B1853409BB21AB2044B1A80C046D2
:104FA000BD4680BD300300202003002032030020D6
:104FB00080B582B000AF0D4B00221A700C4B00225E
:104FC0001A7000237B6009E07B68DAB2094B1A7023
:104FD0006420FEF765FE7B6801337B607B68072BEE
:104FE000F2DD054B04225A61FEE7C0462A0200208A
:104FF000290200202802002000040048F0B589B0F2
:1050000000AF7861FA600A2008268319DB190A1CB0
:105010001A807B691A01FB681B681B13D31A1C00DA
:10502000DB171D008319DB191B889BB23B60002333
:105030007B603A687B682000290000F067FA020074
:105040000B00190710090143B9611B11FB61FB69D2
:10505000002B16DCFB69002B04D1BA6980231B06E8
:105060009A420ED2BA69FB69591C05DB591C0AD158
:10507000802109068A4206D28022120601235B4261
:1050800001E0074A0023BA61FB61BA69FB681B684B
:10509000D218FB681A60C046BD4609B0F0BDC046D4
:1050A000FFFFFF7F90B585B000AF3A60BB1D021CCB
:1050B0001A803B1D0A1C1A80BB1D1B881B019AB25B
:1050C0003B6800215B5E9BB2D31A9AB20E217B181B
:1050D0001A807A183B1D0020125E00201B5E9A4247
:1050E00004DD7B183A1D12881A8013E03B1D1B88D3
:1050F0005B429AB20C217B181A800E203A187B185A
:105100000024125F00241B5F9A4203DA3B187A18CE
:1051100012881A803B6800229B5E9AB20E23FB180D
:105120001B88D3189BB21AB23B681A80C046BD4692
:1051300005B090BD002243088B4274D303098B4213
:105140005FD3030A8B4244D3030B8B4228D3030C57
:105150008B420DD3FF22090212BA030C8B4202D3F9
:105160001212090265D0030B8B4219D300E0090A21
:10517000C30B8B4201D3CB03C01A5241830B8B422A
:1051800001D38B03C01A5241430B8B4201D34B0313
:10519000C01A5241030B8B4201D30B03C01A524178
:1051A000C30A8B4201D3CB02C01A5241830A8B42FD
:1051B00001D38B02C01A5241430A8B4201D34B02E6
:1051C000C01A5241030A8B4201D30B02C01A52414A
:1051D000CDD2C3098B4201D3CB01C01A52418309FE
:1051E0008B4201D38B01C01A524143098B4201D338
:1051F0004B01C01A524103098B4201D30B01C01A63
:105200005241C3088B4201D3CB00C01A52418308DC
:105210008B4201D38B00C01A524143088B4201D309
:105220004B00C01A5241411A00D201465241104669
:105230007047FFE701B5002000F0F0F802BDC0465E
:105240000029F7D076E7704703460B437FD400224E
:1052500043088B4274D303098B425FD3030A8B420A
:1052600044D3030B8B4228D3030C8B420DD3FF2274
:10527000090212BA030C8B4202D31212090265D042
:10528000030B8B4219D300E0090AC30B8B4201D3F5
:10529000CB03C01A5241830B8B4201D38B03C01A3C
:1052A0005241430B8B4201D34B03C01A5241030BB3
:1052B0008B4201D30B03C01A5241C30A8B4201D364
:1052C000CB02C01A5241830A8B4201D38B02C01A0F
:1052D0005241430A8B4201D34B02C01A5241030A86
:1052E0008B4201D30B02C01A5241CDD2C3098B426B
:1052F00001D3CB01C01A524183098B4201D38B01E8
:10530000C01A524143098B4201D34B01C01A52418A
:1053100003098B4201D30B01C01A5241C3088B42CF
:1053200001D3CB00C01A524183088B4201D38B00BA
:10533000C01A524143088B4201D34B00C01A52415C
:10534000411A00D201465241104670475DE0CA0F33
:1053500000D04942031000D34042534000229C46F3
:1053600003098B422DD3030A8B4212D3FC228901FD
:1053700012BA030A8B420CD3890192118B4208D3D3
:10538000890192118B4204D389013AD0921100E035
:105390008909C3098B4201D3CB01C01A5241830949
:1053A0008B4201D38B01C01A524143098B4201D376
:1053B0004B01C01A524103098B4201D30B01C01AA1
:1053C0005241C3088B4201D3CB00C01A524183081B
:1053D0008B4201D38B00C01A5241D9D243088B4271
:1053E00001D34B00C01A5241411A00D20146634614
:1053F00052415B10104601D34042002B00D5494278
:10540000704763465B1000D3404201B5002000F0B6
:1054100005F802BD0029F8D016E770477047C0466E
:105420000448054B10B5834203D0044B002B00D039
:10543000984710BD34010020340100200000000016
:1054400006480749091A8B10C90FC91810B5491029
:1054500003D0044B002B00D0984710BD340100202E
:10546000340100200000000010B5074C2378002B09
:1054700009D1FFF7D5FF054B002B02D0044800E00F
:1054800000BF0123237010BD440300200000000072
:1054900058570008054B10B5002B03D004490548A8
:1054A00000E000BFFFF7CCFF10BDC04600000000C9
:1054B00048030020585700080D4885460D480E49FE
:1054C0000E4A002302E0D458C4500433C4188C425E
:1054D000F9D30B4A0B4C002301E013600432A242C3
:1054E000FBD3FFF74BF900F03FF8FDF73FFEFEE777
:1054F000001000200000002034010020105F000890
:1055000034010020F8040020FEE70000F0B5CE468C
:105510009946030C9C46130447461B0C1D000E00C5
:1055200061460404240C80B50700100C4B4365430E
:10553000414360432C0CC01824188C46A34203D965
:1055400080235B029846C444494679435643230C62
:105550002D042D0C8919634424046019C918C0BC9A
:10556000B946B046F0BDC04670B50D4B0D4D5E1B43
:10557000B610AB4205D0002408CD01349847A642AE
:10558000FAD800F0E9F8084B084D5E1BB610AB42A4
:1055900005D0002408CD01349847A642FAD870BD42
:1055A000045F0008045F00080C5F0008045F000847
:1055B0007047C0467047C046F0B5C64600B5032ADE
:1055C0000DD80500561E002A06D00023CC5C1A0018
:1055D000EC540133B242F9D180BCB846F0BD03258A
:1055E00004002E000C4303002640254232D10F2A2E
:1055F00033D910271500BC460C00103D2D092D0194
:10560000A8464519AC4467685F60A7689F60E76873
:10561000DF60276810341F601F001033AF42F2D1E3
:105620000F230C2410311340144065461A004144E6
:10563000002CC7D08A59AA5104369A1B032AF9D8DC
:1056400003221A409B08013B9B0004310435C91812
:10565000ED18B7E70500561EB7E713000500E9E7A8
:10566000034B10B5002B02D0024800F005F810BD26
:10567000000000008956000810B501000023002238
:10568000002000F015F810BD70B5074C074D641BE5
:10569000A41005D0013CA300EB589847002CF9D189
:1056A00000F060F870BDC046105F00080C5F000895
:1056B000F0B5D6464F4646469846244BC0B5060040
:1056C00018689A460F009146FFF772FF204B1D683D
:1056D000002D32D053466C6818681F2C30DC002E29
:1056E0000CD1631C0234A4006B606751FFF762FFAA
:1056F0000020E0BCBA46B146A846F0BD4946882223
:10570000A300EB189950C42149008C46AC44614673
:10571000873AA2400968914611436246116084218C
:10572000424649005A50022EDBD129004A468D31AB
:10573000FF310B6813430B60D3E7064D1D60C9E7CB
:10574000FFF738FF01204042D3E7C0463001002078
:105750006403002068030020F8B5C046F8BC08BC0C
:105760009E467047F8B5C046F8BC08BC9E467047D8
:105770000020EA21CA239E2567272329D32A752CD6
:105780000A2E902F07316F32C7330F3546366D37EB
:1057900082388639783A573B243CDE3C853D193EB9
:1057A0009A3E073F613FA63FD83FF63F0040F63F95
:1057B000D83FA63F613F073F9A3E193E853DDE3CFC
:1057C000243C573B783A863982386D3746360F3558
:1057D000C7336F320731902F0A2E752CD32A232915
:1057E00067279E25CA23EA2100200C1E0E1C081ADA
:1057F000FA17E415C713A4117C0F4E0D1D0BE80812
:10580000B10677043C020000C4FD89FB4FF918F78C
:10581000E3F4B2F284F05CEE39EC1CEA06E8F8E559
:10582000F2E3F4E100E016DE36DC62DA99D8DDD688
:105830002DD58BD3F6D170D0F9CE91CD39CCF1CA1C
:10584000BAC993C87EC77AC688C5A9C4DCC322C3B7
:105850007BC2E7C166C1F9C09FC05AC028C00AC058
:1058600000C00AC028C05AC09FC0F9C066C1E7C1C5
:105870007BC222C3DCC3A9C488C57AC67EC793C8CD
:10588000BAC9F1CA39CC91CDF9CE70D0F6D18BD34B
:105890002DD5DDD699D862DA36DC16DE00E0F4E1EB
:1058A000F2E3F8E506E81CEA39EC5CEE84F0B2F2CB
:1058B000E3F418F74FF989FBC4FD00003C027704BC
:1058C000B106E8081D0B4E0D7C0FA411C713E4159B
:1058D000FA17081A0E1C0C1E00206D3746360F35BD
:1058E000C7336F320731902F0A2E752CD32A232904
:1058F00067279E25CA23EA2100200C1E0E1C081AC9
:10590000FA17E415C713A4117C0F4E0D1D0BE80800
:10591000B10677043C020000C4FD89FB4FF918F77B
:10592000E3F4B2F284F05CEE39EC1CEA06E8F8E548
:10593000F2E3F4E100E016DE36DC62DA99D8DDD677
:105940002DD58BD3F6D170D0F9CE91CD39CCF1CA0B
:10595000BAC993C87EC77AC688C5A9C4DCC322C3A6
:105960007BC2E7C166C1F9C09FC05AC028C00AC047
:1059700000C00AC028C05AC09FC0F9C066C1E7C1B4
:105980007BC222C3DCC3A9C488C57AC67EC793C8BC
:10599000BAC9F1CA39CC91CDF9CE70D0F6D18BD33A
:1059A0002DD5DDD699D862DA36DC16DE00E0F4E1DA
:1059B000F2E3F8E506E81CEA39EC5CEE84F0B2F2BA
:1059C000E3F418F74FF989FBC4FD00003C027704AB
:1059D000B106E8081D0B4E0D7C0FA411C713E4158A
:1059E000FA17081A0E1C0C1E0020EA21CA239E2555
:1059F00067272329D32A752C0A2E902F07316F325F
:105A0000C7330F3546366D3782388639783A573B7B
:105A1000243CDE3C853D193E9A3E073F613FA63F50
:105A2000D83FF63F0040F63FD83FA63F613F073FD3
:105A30009A3E193E853DDE3C243C573B783A8639F8
:105A400082386D37DDCCBECAD2C81BC797C547C4E4
:105A500027C338C277C1E1C073C02CC007C001C0E2
:105A600016C043C083C0D4C031C197C102C26EC248
:105A7000D8C23DC39BC3EFC336C470C49AC4B4C478
:105A8000BCC4B4C49AC470C436C4EFC39BC33DC382
:105A9000D8C26EC202C297C131C1D4C083C043C054
:105AA00016C001C007C02CC073C0E1C077C138C2A6
:105AB00027C347C497C51BC7D2C8BECADDCC30CFE9
:105AC000B7D16ED455D769DAA9DD0FE19AE445E87C
:105AD0000DECEDEFE0F3E3F7EFFB000011041D0820
